{
  "contractName": "Certificate",
  "abi": [
    {
      "inputs": [],
      "stateMutability": "nonpayable",
      "type": "constructor"
    },
    {
      "anonymous": false,
      "inputs": [
        {
          "indexed": false,
          "internalType": "uint256",
          "name": "id",
          "type": "uint256"
        },
        {
          "indexed": false,
          "internalType": "string",
          "name": "name",
          "type": "string"
        },
        {
          "indexed": false,
          "internalType": "string",
          "name": "course",
          "type": "string"
        },
        {
          "indexed": false,
          "internalType": "address",
          "name": "student",
          "type": "address"
        }
      ],
      "name": "CertificateCreated",
      "type": "event"
    },
    {
      "inputs": [
        {
          "internalType": "uint256",
          "name": "",
          "type": "uint256"
        }
      ],
      "name": "certificates",
      "outputs": [
        {
          "internalType": "uint256",
          "name": "id",
          "type": "uint256"
        },
        {
          "internalType": "string",
          "name": "name",
          "type": "string"
        },
        {
          "internalType": "string",
          "name": "course",
          "type": "string"
        },
        {
          "internalType": "address",
          "name": "student",
          "type": "address"
        }
      ],
      "stateMutability": "view",
      "type": "function",
      "constant": true
    },
    {
      "inputs": [],
      "name": "owner",
      "outputs": [
        {
          "internalType": "address",
          "name": "",
          "type": "address"
        }
      ],
      "stateMutability": "view",
      "type": "function",
      "constant": true
    },
    {
      "inputs": [
        {
          "internalType": "string",
          "name": "_name",
          "type": "string"
        },
        {
          "internalType": "string",
          "name": "_course",
          "type": "string"
        }
      ],
      "name": "createCertificate",
      "outputs": [],
      "stateMutability": "nonpayable",
      "type": "function"
    },
    {
      "inputs": [
        {
          "internalType": "uint256",
          "name": "_id",
          "type": "uint256"
        }
      ],
      "name": "getCertificate",
      "outputs": [
        {
          "components": [
            {
              "internalType": "uint256",
              "name": "id",
              "type": "uint256"
            },
            {
              "internalType": "string",
              "name": "name",
              "type": "string"
            },
            {
              "internalType": "string",
              "name": "course",
              "type": "string"
            },
            {
              "internalType": "address",
              "name": "student",
              "type": "address"
            }
          ],
          "internalType": "struct Certificate.CertificateData",
          "name": "",
          "type": "tuple"
        }
      ],
      "stateMutability": "view",
      "type": "function",
      "constant": true
    }
  ],
  "bytecode": "0x608060405234801561001057600080fd5b50336000806101000a81548173ffffffffffffffffffffffffffffffffffffffff021916908373ffffffffffffffffffffffffffffffffffffffff160217905550610cbb806100606000396000f3fe608060405234801561001057600080fd5b506004361061004c5760003560e01c806351640fee14610051578063663b3e22146100815780638da5cb5b146100b4578063f02c5a20146100d2575b600080fd5b61006b600480360381019061006691906107d7565b6100ee565b6040516100789190610993565b60405180910390f35b61009b600480360381019061009691906107d7565b610333565b6040516100ab94939291906109b5565b60405180910390f35b6100bc6104a3565b6040516100c99190610958565b60405180910390f35b6100ec60048036038101906100e7919061076b565b6104c7565b005b6100f661060d565b60008211801561010b57506001805490508211155b61014a576040517f08c379a000000000000000000000000000000000000000000000000000000000815260040161014190610973565b60405180910390fd5b600180836101589190610aec565b8154811061018f577f4e487b7100000000000000000000000000000000000000000000000000000000600052603260045260246000fd5b9060005260206000209060040201604051806080016040529081600082015481526020016001820180546101c290610b9e565b80601f01602080910402602001604051908101604052809291908181526020018280546101ee90610b9e565b801561023b5780601f106102105761010080835404028352916020019161023b565b820191906000526020600020905b81548152906001019060200180831161021e57829003601f168201915b5050505050815260200160028201805461025490610b9e565b80601f016020809104026020016040519081016040528092919081815260200182805461028090610b9e565b80156102cd5780601f106102a2576101008083540402835291602001916102cd565b820191906000526020600020905b8154815290600101906020018083116102b057829003601f168201915b505050505081526020016003820160009054906101000a900473ffffffffffffffffffffffffffffffffffffffff1673ffffffffffffffffffffffffffffffffffffffff1673ffffffffffffffffffffffffffffffffffffffff16815250509050919050565b6001818154811061034357600080fd5b906000526020600020906004020160009150905080600001549080600101805461036c90610b9e565b80601f016020809104026020016040519081016040528092919081815260200182805461039890610b9e565b80156103e55780601f106103ba576101008083540402835291602001916103e5565b820191906000526020600020905b8154815290600101906020018083116103c857829003601f168201915b5050505050908060020180546103fa90610b9e565b80601f016020809104026020016040519081016040528092919081815260200182805461042690610b9e565b80156104735780601f1061044857610100808354040283529160200191610473565b820191906000526020600020905b81548152906001019060200180831161045657829003601f168201915b5050505050908060030160009054906101000a900473ffffffffffffffffffffffffffffffffffffffff16905084565b60008054906101000a900473ffffffffffffffffffffffffffffffffffffffff1681565b6000600180805490506104da9190610a96565b9050600160405180608001604052808381526020018581526020018481526020013373ffffffffffffffffffffffffffffffffffffffff16815250908060018154018082558091505060019003906000526020600020906004020160009091909190915060008201518160000155602082015181600101908051906020019061056492919061064b565b50604082015181600201908051906020019061058192919061064b565b5060608201518160030160006101000a81548173ffffffffffffffffffffffffffffffffffffffff021916908373ffffffffffffffffffffffffffffffffffffffff16021790555050507f3a2097aa38c1f8d4df920e4fd180f36eb6a968021dfb09bb5117ac9e67c3ec418184843360405161060094939291906109b5565b60405180910390a1505050565b6040518060800160405280600081526020016060815260200160608152602001600073ffffffffffffffffffffffffffffffffffffffff1681525090565b82805461065790610b9e565b90600052602060002090601f01602090048101928261067957600085556106c0565b82601f1061069257805160ff19168380011785556106c0565b828001600101855582156106c0579182015b828111156106bf5782518255916020019190600101906106a4565b5b5090506106cd91906106d1565b5090565b5b808211156106ea5760008160009055506001016106d2565b5090565b60006107016106fc84610a39565b610a08565b90508281526020810184848401111561071957600080fd5b610724848285610b5c565b509392505050565b600082601f83011261073d57600080fd5b813561074d8482602086016106ee565b91505092915050565b60008135905061076581610c6e565b92915050565b6000806040838503121561077e57600080fd5b600083013567ffffffffffffffff81111561079857600080fd5b6107a48582860161072c565b925050602083013567ffffffffffffffff8111156107c157600080fd5b6107cd8582860161072c565b9150509250929050565b6000602082840312156107e957600080fd5b60006107f784828501610756565b91505092915050565b61080981610b20565b82525050565b61081881610b20565b82525050565b600061082982610a69565b6108338185610a74565b9350610843818560208601610b6b565b61084c81610c5d565b840191505092915050565b600061086282610a69565b61086c8185610a85565b935061087c818560208601610b6b565b61088581610c5d565b840191505092915050565b600061089d601b83610a85565b91507f436572746966696361746520646f6573206e6f742065786973742e00000000006000830152602082019050919050565b60006080830160008301516108e8600086018261093a565b5060208301518482036020860152610900828261081e565b9150506040830151848203604086015261091a828261081e565b915050606083015161092f6060860182610800565b508091505092915050565b61094381610b52565b82525050565b61095281610b52565b82525050565b600060208201905061096d600083018461080f565b92915050565b6000602082019050818103600083015261098c81610890565b9050919050565b600060208201905081810360008301526109ad81846108d0565b905092915050565b60006080820190506109ca6000830187610949565b81810360208301526109dc8186610857565b905081810360408301526109f08185610857565b90506109ff606083018461080f565b95945050505050565b6000604051905081810181811067ffffffffffffffff82111715610a2f57610a2e610c2e565b5b8060405250919050565b600067ffffffffffffffff821115610a5457610a53610c2e565b5b601f19601f8301169050602081019050919050565b600081519050919050565b600082825260208201905092915050565b600082825260208201905092915050565b6000610aa182610b52565b9150610aac83610b52565b9250827fffffffffffffffffffffffffffffffffffffffffffffffffffffffffffffffff03821115610ae157610ae0610bd0565b5b828201905092915050565b6000610af782610b52565b9150610b0283610b52565b925082821015610b1557610b14610bd0565b5b828203905092915050565b6000610b2b82610b32565b9050919050565b600073ffffffffffffffffffffffffffffffffffffffff82169050919050565b6000819050919050565b82818337600083830152505050565b60005b83811015610b89578082015181840152602081019050610b6e565b83811115610b98576000848401525b50505050565b60006002820490506001821680610bb657607f821691505b60208210811415610bca57610bc9610bff565b5b50919050565b7f4e487b7100000000000000000000000000000000000000000000000000000000600052601160045260246000fd5b7f4e487b7100000000000000000000000000000000000000000000000000000000600052602260045260246000fd5b7f4e487b7100000000000000000000000000000000000000000000000000000000600052604160045260246000fd5b6000601f19601f8301169050919050565b610c7781610b52565b8114610c8257600080fd5b5056fea264697066735822122067446860e7b1bac4eb9b934443792627937500d4bb9b33e2a02116943b6bd59464736f6c63430008000033",
  "immutableReferences": {},
  "source": "// SPDX-License-Identifier: MIT\r\n\r\npragma solidity 0.8.0;\r\n\r\n//  -\r\ncontract Certificate {\r\n    //      \r\n    address public owner;\r\n\r\n    //      \r\n    struct CertificateData {\r\n        uint id;\r\n        string name;\r\n        string course;\r\n        address student;\r\n    }\r\n\r\n    //    \r\n    CertificateData[] public certificates;\r\n\r\n    // ,       \r\n    event CertificateCreated(uint id, string name, string course, address student);\r\n\r\n    // ,    \r\n    constructor() {\r\n        owner = msg.sender;\r\n    }\r\n\r\n    //     \r\n    function createCertificate(string memory _name, string memory _course) public {\r\n        //  ID  1    \r\n        uint certificateID = certificates.length + 1;\r\n\r\n        //        \r\n        certificates.push(CertificateData(certificateID, _name, _course, msg.sender));\r\n\r\n        //      \r\n        emit CertificateCreated(certificateID, _name, _course, msg.sender);\r\n    }\r\n\r\n    //        ID\r\n    function getCertificate(uint _id) public view returns (CertificateData memory) {\r\n        require(_id > 0 && _id <= certificates.length, \"Certificate does not exist.\");\r\n        return certificates[_id - 1];\r\n    }\r\n}",
  "sourcePath": "C:\\block\\contracts\\certificate.sol",
  "compiler": {
    "name": "solc",
    "version": "0.8.0+commit.c7dfd78e.Emscripten.clang"
  },
  "schemaVersion": "3.4.16",
  "updatedAt": "2024-05-16T13:12:59.833Z",
  "networkType": "ethereum",
  "devdoc": {
    "kind": "dev",
    "methods": {},
    "version": 1
  },
  "userdoc": {
    "kind": "user",
    "methods": {},
    "version": 1
  }
}